:10000000C9C3000000C40000FEC30000FCC3000020
:10001000FAC30000F8C30000F6C30000F4C30000F8
:10002000F2C30000F0C300000C941B240C94E724DE
:100030000C94A21EE8C30000E6C30000E4C3000065
:10004000E2C30000E0C30000DEC30000DCC3000028
:10005000DAC300000C94191FD6C30000D4C30000FB
:10006000D2C30000D0C30000CEC30000CCC3000048
:10007000CAC30000C8C30000C6C30000C4C3000058
:10008000C2C30000C0C30000BEC30000BCC3000068
:10009000BAC30000B8C30000B6C30000B4C3000078
:1000A000B2C30000B0C30000AEC300007B007C0000
:1000B0007D006C65645F7461736B3A202530325843
:1000C0000A004F6E6573686F743A206163746976D5
:1000D000653A2025640A0044454255473A20646940
:1000E0007361626C65642E0A0044454255473A20AC
:1000F000656E61626C65642E0A000A002530386204
:10010000003A200025303258000A722F6320303127
:100110003233343536370A007267626C6967687447
:100120002074696D65722064697361626C652E0A62
:10013000007267626C696768742074696D6572200B
:10014000656E61626C65642E0A007267626C696735
:1001500068742073657420687376205B4E4F454544
:1001600050524F4D5D3A2025752C25752C25750A6A
:10017000007267626C6967687420736574206873C5
:1001800076205B454550524F4D5D3A2025752C2514
:10019000752C25750A007267626C69676874207235
:1001A00061696E626F7720736574206873763A2098
:1001B00025642C25642C25642C25750A0072676241
:1001C0006C696768742064697361626C65205B4563
:1001D0004550524F4D5D3A207267626C6967687492
:1001E0005F636F6E6669672E656E61626C65203D48
:1001F0002025750A007267626C6967687420656EF5
:1002000061626C65205B454550524F4D5D3A2072EE
:1002100067626C696768745F636F6E6669672E6595
:100220006E61626C65203D2025750A007267626C04
:100230006967687420746F67676C65205B4545501B
:10024000524F4D5D3A207267626C696768745F63F4
:100250006F6E6669672E656E61626C65203D202554
:10026000750A007267626C69676874206D6F6465F7
:10027000205B4E4F454550524F4D5D3A2025750A43
:10028000007267626C69676874206D6F6465205BDB
:10029000454550524F4D5D3A2025750A0072676200
:1002A0006C696768745F696E6974207267626C69F3
:1002B0006768745F636F6E6669672E6D6F64652033
:1002C0003D20302E20577269746520646566617523
:1002D0006C742076616C75657320746F2045455091
:1002E000524F4D2E0A007267626C696768745F69CD
:1002F0006E6974207374617274210A007267626C93
:10030000696768745F636F6E6669672E7370656591
:1003100064203D2025640A007267626C6967687416
:100320005F636F6E6669672E76616C203D20256481
:100330000A007267626C696768745F636F6E6669F2
:10034000672E736174203D2025640A007267626C19
:10035000696768745F636F6E6669672E687565208C
:100360003D2025640A007267686C696768745F6382
:100370006F6E6669672E6D6F6465203D2025640A87
:10038000007267626C696768745F636F6E66696745
:100390002E76656C6F63696B6579203D2025640A54
:1003A000007267626C696768745F636F6E66696725
:1003B0002E656E61626C65203D2025640A007267BF
:1003C000626C696768745F636F6E66696720454534
:1003D00050524F4D3A0A001E0F0500047F3F1F6424
:1003E0003214643214783C1E1E140A05222325267A
:1003F00028292A2C2D2F3032333536383A3B3D3ED2
:100400004042434547494A4C4E5051535557595A1B
:100410005C5E6062646668696B6D6F717375777935
:100420007B7D7F81838587898A8C8E909294969834
:100430009A9C9E9FA1A3A5A7A8AAACAEAFB1B3B446
:10044000B6B8B9BBBCBEBFC1C2C3C5C6C7C9CACB9B
:10045000CCCDCED0D1D2D2D3D4D5D6D7D7D8D9D966
:10046000DADADBDBDBDCDCDCDCDCDDDDDDDDDCDCCF
:10047000DCDCDCDBDBDBDADAD9D9D8D7D7D6D5D4EC
:10048000D3D2D2D1D0CECDCCCBCAC9C7C6C5C3C2B8
:10049000C1BFBEBCBBB9B8B6B4B3B1AFAEACAAA80D
:1004A000A7A5A3A19F9E9C9A98969492908E8C8AC1
:1004B00089878583817F7D7B79777573716F6D6B9C
:1004C0006968666462605E5C5A5957555351504E74
:1004D0004C4A4947454342403E3D3B3A3836353326
:1004E00032302F2D2C2A292826252322FFAA7F559A
:1004F00040000101010101010101010202020202A9
:1005000002020202030303030303030304040404BB
:100510000404040505050505060606060607070783
:10052000070708080808090909090A0A0A0B0B0B3A
:100530000C0C0C0D0D0D0E0E0E0F0F0F10101111D7
:10054000111212131314141515161617171818195B
:10055000191A1A1B1B1C1D1D1E1E1F2020212222C2
:10056000232424252626272829292A2B2C2D2D2E05
:100570002F30313232333435363738393A3B3C3D1F
:100580003E3F404142434445464748494A4C4D4E10
:100590004F50515354555658595A5B5D5E5F6162D6
:1005A00064656668696B6C6D6F7072737577787A65
:1005B0007B7D7E8082838587888A8C8E8F919395C0
:1005C00096989A9C9EA0A2A3A5A7A9ABADAFB1B3E4
:1005D000B5B7BABCBEC0C2C4C6C9CBCDCFD1D4D6C4
:1005E000D8DBDDDFE2E4E7E9EBEEF0F3F5F8FAFD66
:1005F000FF0A092D20436F6E736F6C65202D0A452D
:1006000053432F713A09717569740A003F00433EE4
:1006100020000A002530325820006B6579626F6136
:1006200072645F7265706F72743A202530325820A0
:100630007C200073757370656E64696E67206B65EE
:1006400079626F6172640D0A005B575D005B535DF8
:10065000005B525D005B445D005B435D0020034234
:10066000006900670053006500720069006500734F
:1006700000200033002D004B006500790000001EB3
:100680000357006F006F0064004B00650079007332
:10069000002E0063006C00690063006B0000000422
:1006A00003090409025400030100A0FA0904000030
:1006B0000103010100092111010001224400070585
:1006C0008103080001090401000103000000092161
:1006D00011010001223200070582032000010904F4
:1006E0000200010300000009211101000122150090
:1006F000070583032000011201000200000008ED3D
:10070000FE73600200010200010631FF0974A101BD
:100710000975150026FF00952075088102C00501A6
:100720000980A101850319012AB700150126B70028
:10073000950175108100C0050C0901A101850419FE
:10074000012AA002150126A002950175108100C0A2
:1007500005010906A101050719E029E71500250192
:100760009508750181029501750881010507190039
:1007700029FF150026FF0095067508810005081958
:100780000129051500250195057501910295017551
:10079000039101C011241FBECFEFDAE0DEBFCDBF51
:1007A00004B603FE19C08091E5029091E602A09183
:1007B000E702B091E8028730904BA740B04B61F45C
:1007C0001092E5021092E6021092E7021092E802FF
:1007D000E0E0F8E3099500C011E0A0E0B1E0EAE94B
:1007E000F0E502C005900D92A83DB107D9F722E0CF
:1007F000A8EDB1E001C01D92A53EB207E1F70E944D
:10080000E9120C940D28FCCBFF93EF93E091D801F3
:10081000F091D901309709F00995EF91FF91089572
:10082000FC018591803011F0EFDFFBCF0895FF27A9
:10083000E0E230E247FF0CC0419597FF09C0EDE2CE
:100840006095709580959095611D711D811D911D1C
:1008500027FF02C0219530E350E2AA27660F771FD9
:10086000881F991FAA1FA41710F0A41B63955A95FF
:10087000A9F7AA3008F0A95FA05DAF93F3956115C1
:1008800071058105910541F7ED3211F4EF93F39570
:10089000F21718F43F93F395FBCF8F91B5DFFA95DC
:1008A000E1F70895E991F9918591803021F0853241
:1008B00019F0AADFF9CF089520E0E8945591553258
:1008C000C1F3503311F4689455915A3348F450539E
:1008D00090F3220F022E220F220F200D250FF4CFAE
:1008E0000EF4219589919991533619F3533729F1D3
:1008F000533559F1BC0188279927E8945C3621F4D7
:100900008991999168945591543639F446EF7EF067
:1009100077FF0DC08FEF9FEF0AC055374AE039F0DF
:10092000583540E121F0523642E009F00895FF9336
:10093000EF937DDFEF91FF91B7CFFF93EF93FC0132
:1009400081918030B9F360DFFBCFFF93EF9368DFD5
:10095000F1CFDF93CF93CDB7DEB72596A3DFCF914D
:10096000DF910895862B69F4433058F4E42FF0E0CA
:10097000EE0FFF1FE455FF4F85919591282F822F91
:10098000089521E090E0FBCFEDCF089581E0089538
:1009900081E00895FBCF089581E0089581E00895F6
:1009A000FDCF089508950895FDCF08950895089501
:1009B000A6E0B0E0EEEDF4E00C94162749835A83EC
:1009C0009E833091DF0189819A81311117C03E8168
:1009D000311589F0211579F019D5182F682F8981E3
:1009E0009A81FBD469817A81812F0E94D90F269642
:1009F000E3E00C943227FDD4182FF4CF07D569819A
:100A00007A81F3CFFC01262F40815181628173816D
:100A100084819581CDCFCF93DF93EC0161E0F2DF4C
:100A2000BE01B6DF811529F061E0CE01EBDFBE012A
:100A3000B1DFDF91CF9108950F931F93CF93DF9391
:100A4000EC0160E0DFDF8C01BE01ADDFBE01C8015B
:100A5000ABDFDF91CF911F910F9108950F931F93FB
:100A6000CF93DF93EC0161E0CDDF8C018D818111AB
:100A70000E94B51ABE01C8018FDF811106C080E057
:100A8000DF91CF911F910F910895BE01C80188DFBA
:100A90008115A9F3BE01C8010E94A41C811579F338
:100AA000BE01C8010E94681B811549F3BE01C8013F
:100AB0000E943F1B811519F3BE01C8010E9401135A
:100AC0008115E9F2BE01C8010E94DA108115B9F260
:100AD000BE01C8010E94EC10811589F2BE01C80157
:100AE0000E940611CDCF21E030E002C0220F331F5B
:100AF0008A95E2F7C901ACC3CF93C82F81E090E09B
:100B00000C2E02C0880F991F0A94E2F70E940F0E64
:100B10008C2FE9DFCF91089581E0089581E0089559
:100B2000FBCF0895CF93C82F42D38C2FF7DF8C2FA4
:100B3000F7DF8FEF94E32CE0815090402040E1F705
:100B400000C00000CF91089581E0ECDF0C943D1FC0
:100B500080E0E8DF0C94611F29DF0E94591E27C046
:100B600028D025DF0C945D1E8295982F990F990F40
:100B70009C7C869586958373982B892F880F8A7A1B
:100B800096959575892B089581E008950895CF93E2
:100B9000DF93D82FF9DFC82F811511F08D2FF6DFE5
:100BA0008C2FDF91CF9108950895F1CF089580E0C3
:100BB000FCCF0E94EB1CF9CFCF930E94EB1CC82FF7
:100BC0008091DA018C17F1F0C093DA010E940D1FB9
:100BD0006093DB017093DC018093DD019093DE0173
:100BE000809148028570853059F41F92CF9382EB33
:100BF00090E09F938F93ADDE0F900F900F900F902A
:100C00008C2FD3DFCF910895ADE0B0E0EAE0F6E0BD
:100C10000C941727488759876A877B878C879D871D
:100C2000911102D71F8286E0FE0138969E012F5F48
:100C30003F4FD90101900D928A95E1F78D81811185
:100C40000CC029813A814B815C816D817E818F81CD
:100C500036D62D96E2E00C943327CE010196DBDEEA
:100C60008111EFCFF6CFFC012481213019F480816E
:100C70009181FFC30895CF93C82F8115A9F08450A7
:100C8000813AA0F48C2F0E94051B81110DC08C2F7E
:100C90000E94AC1D811521F08C2F0E94EE1D2DD7D6
:100CA0008C2F0E94E81D29D7CF9108958C2F805E4C
:100CB000883048F481E0C1FD84E0C0FD880FC2FDAA
:100CC000829593D6F0CF8C2F855A833030F48C2FB9
:100CD0008452990B0E944A1DE7CFC85ACB3120F7A6
:100CE000EC2FF0E0EE0FFF1FE95DFE4F8081918158
:100CF0000E94711DD9CF811521F1982F9450913AFE
:100D000018F40E94EE1DF9C6982F905E983050F4AA
:100D1000982F81E091FD84E090FD880F92FD8295EF
:100D20006AD6F1CF982F955A933020F480E090E066
:100D30000C944A1D885A8B3120F480E090E00C948A
:100D4000711D08951F93CF93DF93182FEB0193DF4D
:100D5000209731F4812FCFDFDF91CF911F9108953C
:100D60008FE99FE00197F1F700C000002197F0CFD5
:100D700060E570E0893311F060E070E0E3CF811549
:100D800011F033D6BAC60895811511F034D6B5C620
:100D90000895A0E0B0E0EFECF6E00C9411276C01B0
:100DA000D62FC72FFC011581068102950F7012D630
:100DB000E82E8115E9F0E12E1115D1F08C2F807FFE
:100DC000803461F08D2F805E883098F18C2F807E8A
:100DD000803221F4D23068F1011559F18091A802D6
:100DE00082FF27C082E0A5D6F5D591E08927E82EBD
:100DF0009C2F92959F70983009F4CAC068F5943082
:100E0000D0F4923008F438C08C2F8F70F82EC07F49
:100E1000C03219F0F29480EFF822D13008F456C0B5
:100E200009F47EC0111509F487C0011509F467C0E3
:100E300036C0E12CDDCF09F48FC0E11409F4D8C02D
:100E4000C5D580FDD5C0F6011582BAD531D2C6010F
:100E500083D1B6D53BD2CCC0993009F40BC19A5F8F
:100E60009F70923050F7D23F09F011C18C2F8F71D3
:100E700011110BC11DD2B9C00C2F0F70C03110F071
:100E80000295007F111581F0011549F08D2F805ECC
:100E9000883010F0D11105C0802FA7D52ED68D2F08
:100EA00021C0802FB3D5FACF8D2F25DF011509F48E
:100EB000C4CF8D2F805E883010F0D11103C0802FF9
:100EC0009AD502C0802FA8D518D6B7CF8091A80296
:100ED00082FD11C0111541F0F11419F08F2D85D547
:100EE0000CD680E0C8DEA9CF80E005DFF11409F45C
:100EF000A4CF8F2DE5CF111551F0013018F48F2DAF
:100F00003EDF9BCF09F099CF8F2DA2D596CF01114F
:100F100094CF8F2D39DF8F2DA6D58F2D8BD58DCFEB
:100F2000111521F0063008F088CFE9CF053008F020
:100F300084CF8F2D29DF81CF0115D9F3D93349F41F
:100F40008FEF97EE23E0815090402040E1F700C002
:100F500000008D2FD0DE71CF8C2F86958695837003
:100F6000813060F009F069CF8D2F9C2F93701111A3
:100F700002C080E090E00E94711D5FCF8D2F9C2FFA
:100F80009370111102C080E090E00E944A1D55CF7D
:100F90008C2F8370C1F5111128C04D2F42954695B5
:100FA0004770440F440F2D2F2F7030E0042E02C0E5
:100FB000220F331F0A94E2F780E090E0D4FF09C0CB
:100FC0008FE090E002C0880F991F4A95E2F7809564
:100FD0009095C695C695C370822B932BC23079F03D
:100FE000C33079F0C13049F03CD10E94EB1CDDDD0B
:100FF000CDB7DEB7E8E00C942D272CD1F6CF38D151
:10100000F4CF26D1F2CF111559F1C0FFEECF4D2FFD
:10101000429546954770440F440F2D2F2F7030E0B6
:10102000042E02C0220F331F0A94E2F780E090E002
:10103000D4FF09C08FE090E002C0880F991F4A9545
:10104000E2F780959095C695C695C370822B932B39
:10105000C23061F0C33061F0C13031F05CD1C5CF36
:10106000823008F4C2CFD3CF4FD1BFCF5BD1BDCF39
:101070000CD1BBCFCF70111529F08C2F19D18D2F2A
:101080007EDEB3CF8D2F80DE8C2F20D1AECF58F4F3
:10109000D03FB1F0D13F79F01115B9F1011591F1BF
:1010A0008D2FE9DDA2CFD33FB1F0D43FA9F78091D6
:1010B000A80282FD18C08C2F8F71111531F3DACE82
:1010C000111539F0053008F090CF8C2F8F710ED1AB
:1010D0008CCF0630F8CF111521F08C2F8F71DFD017
:1010E00084CFDAD082CF111529F063E08C2F8F7175
:1010F00009D57BCF81E01DD5023008F476CF82E0A0
:1011000018D573CF8C2F8F71B5CE011571F0D933EF
:1011100049F48FEF97EE23E0815090402040E1F7B3
:1011200000C000008D2FE7DD60CF8C2F8F71ADCF19
:101130000F931F93CF93DF93EC01688179818D81A9
:10114000A1D18C01F6D083D0B801CE0122DEDF918F
:10115000CF911F910F910895CF93DF93EC018C8174
:10116000811581F0CE017ADC81110FC033D4811555
:1011700049F08D81811531F08091A80282FF02C073
:1011800082E0D7D4DF91CF910895CE01D1DFCE0197
:1011900053DCF8CF80E090E00E944A1D80E090E0B0
:1011A0000E94711D41D4A9C40E94F41DF3CF2BD419
:1011B000FBCF282F92959F70963099F060F4925F44
:1011C0009F70923030F4203FB1F038F481E0283E37
:1011D00038F080E008959A5FF3CF81E0243FC9F7AB
:1011E000089591E0813F09F090E081E0283E08F009
:1011F00080E0892B089581E00895FC012481211568
:1012000021F08081918135D1D4CF80E00895A6E08E
:10121000B0E0EDE0F9E00C9417272696E2E00C949C
:101220003327A7E0B0E0E7E1F9E00C941727279611
:10123000E2E00C9433270895FECF0895FDCF089582
:10124000FADFFCDF8093E6019093E70108950895AB
:10125000F7CF08952091E6013091E701822B932B7F
:10126000EFCF2091E6013091E70182239323E8CF6D
:101270002091E6013091E70182279327E1CFDBCF70
:101280000895FDCF0895D7CF0895FDDFFADF80934D
:10129000E4019093E501089580E090E0F6CF21E02D
:1012A00030E002C0220F331F8A95E2F7C901EDCF6B
:1012B00021E030E002C0220F331F8A95E2F78091CF
:1012C000E4019091E501822B932BDFCF21E030E008
:1012D00002C0220F331F8A95E2F720953095809146
:1012E000E4019091E50182239323CFCF21E030E008
:1012F00002C0220F331F8A95E2F78091E40190919A
:10130000E50182279327C1CF2091E4013091E501C7
:10131000822B932BBACF2091E4013091E5018223F7
:101320009323B3CF2091E4013091E50182279327E5
:10133000ACCF0895CF93C1E061FDC4E060FDCC0F58
:1013400062FDC29593E0769567959A95E1F7660FF1
:10135000771F660F771F460F571FFA0140E050E0D6
:1013600090E06191DF019C01042E02C03695279523
:101370000A94E2F72695220B26272C2326272E9364
:101380004F5F5F4F4430510561F7CF910895A82F0B
:10139000A77023E0969587952A95E1F7880F991F06
:1013A000880F991F680F791FFB0140E050E080E033
:1013B000219130E00A2E02C0369527950A94E2F773
:1013C0002170042E01C0220F0A94EAF7822B4F5F8E
:1013D0005F4F4430510561F70895262F911108C0E1
:1013E000833030F4682F70E040EE51E0822FA2CFBE
:1013F0000895911109C0833028F460EE71E090E007
:10140000C6DF982F892F089590E0FCCFCF92DF920E
:10141000FF920F931F93CF93DF936C010091E40130
:101420001091E5018091E6019091E701082B192BBD
:10143000CFE0D0E081E090E00C2E02C0880F991F31
:101440000A94E2F780239123892B61F4219790F786
:10145000F12C8F2DDF91CF911F910F91FF90DF9095
:10146000CF900895FC2EB6018C2FAED5019771F365
:10147000F0CFCF93DF93EC01C9DFBE01A5D5DF919B
:10148000CF9108951F93CF93DF93EB019091DF01EC
:10149000911531F0CB01EDDFDF91CF911F910895D0
:1014A000811551F0CB01B2DF182F682FCE0195DFE7
:1014B000BE01812F89D5F0CFCB019BDF182FF8CF4C
:1014C0000F931F930091E8018091E901801303C0FD
:1014D0001F910F91089587E0089FF0011124E651B4
:1014E000FE4F2081318142815381648175818681E3
:1014F00098DE0F5F1F4F0770E7CF209122023091D7
:10150000230240912402509125026091260270919D
:1015100027028091280285CE80912802803170F4C4
:1015200080912702811551F0E091E8012091E901B5
:1015300030912302409122022E1301C00895BF0171
:1015400087E0E89FF0011124DF01A651BE4F1496F9
:101550008C911497811549F111968C9111978313F1
:1015600024C08C91841321C015968C9115978111FC
:101570001CC012968D919D91A0912402B0912502DC
:101580008A1B9B0B883C910580F4809128028F7008
:10159000806180932802E051FE4F80818F708061CE
:1015A000808382E292E0D8DD8BCF6F5F7F4FFB01BB
:1015B000E770C2CFE091E8019091E901E91302C020
:1015C00080E008959F0157E0E59FF0011124E65166
:1015D000FE4F5181561306C05081581303C05581E8
:1015E000541305C02F5F3F4FF901E770E7CF81E04B
:1015F00008958F929F92AF92BF92DF92EF92FF92E7
:101600000F931F93CF93DF93CDB7DEB72D970FB610
:10161000F894DEBF0FBECDBF8C0186E0F801DE017D
:10162000189601900D928A95E1F7F801F580848172
:1016300092E2892E92E0992E90912602911117C084
:10164000811509F4EFC0F11409F42EC1C801D5DDEC
:10165000811509F429C187E0F801D40101900D92A8
:101660008A95E1F7C401FFDA57DF47DFDBC0E0808E
:10167000A280B380D09027022091240230912502CD
:10168000A501421B530BD11409F4CFC0483C5105AE
:1016900008F09EC0811509F4C5C090912302918085
:1016A00080912802803108F065C0991226C090917F
:1016B00022029E1122C0F11057C08F70806180936A
:1016C00028021BDF82E292E047DD80912802F801C8
:1016D0008683F12C8F2D2D960FB6F894DEBF0FBEAA
:1016E000CDBFDF91CF911F910F91FF90EF90DF90D1
:1016F000BF90AF909F908F900895F11035C040E05B
:10170000692D8E2D57DF40E0692D8E2D53DFF82E89
:101710008111DFCF88859985ACDE292F22952F7026
:10172000903450F49F70223078F0911591F0F801C8
:101730009681903170F4CECF2A5F2F70223070F0F6
:10174000C8010ADDFD2CC6CF911519F0811509F4E9
:10175000C1CF805E883008F4BDCFF2CF803F08F45F
:10176000B9CF815F8330F7CF809128028160809369
:101770002802AFCF991207C0909122029E1103C098
:10178000F11409F473C0C80138DD811509F48CC067
:10179000F11409F489C080912802803280F02091F0
:1017A00022023091230229833A83AB82BC8290913A
:1017B00026029D831E828F83CE010196CDDC87E0B9
:1017C000F801A2E2B2E001900D928A95E1F74CCFC8
:1017D00090912802903188F4488559856A857B85E7
:1017E0008C859D8514DD82E292E0B6DCF40187E011
:1017F00011928A95E9F781DE6CCF811599F02091DD
:10180000230281812813BFCF809122028E11BBCF8A
:10181000F110B9CF9683C8019FDCF40187E01192E3
:101820008A95E9F7FF24F39455CF483C510508F019
:101830003EC08115B9F3F114B9F190912302818171
:10184000981329C0809122028E1125C08091280210
:1018500080FD18C08031B0F08683807F803F39F0F2
:101860008681982F907F905F8F70892B8683C80127
:1018700073DC87E0F801A2E2B2E001900D928A9554
:10188000E1F7F3CE87E0F801A2E2B2E001900D9219
:101890008A95E1F7C7CFC801B0DC811190CF809164
:1018A0002802816080932802C80156DCBBCF48859E
:1018B00059856A857B858C859D85A9DC97CFAEE0AF
:1018C000B0E0E5E6FCE00C941627288739874A87C4
:1018D0005B876C877D878E87CE0108968ADE6C8554
:1018E000811599F0611539F0288539854A855B8520
:1018F0007D858E8596DC8091E8019091E9018913C0
:101900003DC02E96E3E00C94322787E09E01285FCD
:101910003F4FF90127503109D90101900D928A9565
:10192000E1F7611541F3A091E9018A2F90E08395D9
:10193000877090E0AC012091E8012417150691F022
:1019400097E09A9FD0011124A651BE4F9E012F5FB0
:101950003F4FF90101900D929A95E1F74093E9010B
:10196000AFDDC9CF24DC1092E9011092E801E2E278
:10197000F2E087E011928A95E9F7BDCF17E0189F52
:10198000C001112486519E4F34DE811509F4B9CF70
:10199000E091E8011E9FF0011124E651FE4F2081E5
:1019A0003181428153816481758186813ADC8091E5
:1019B000E8019091E901019687708093E8019BCF3F
:1019C00080913102869586958695089580913102A1
:1019D0008770089590913102977081E0911101C054
:1019E00080E0089580913D02089590913D02982BEA
:1019F00090933D0208958095982F80913D02892310
:101A000080933D02089510923D02089590913C020A
:101A1000982B90933C0208958095982F80913C02DA
:101A2000892380933C02089510923C020895089502
:101A3000FECF089590913202292F282329F0809516
:101A4000892380933202F4CF08950895FECF08953C
:101A500090913302292F2823281721F0982B909357
:101A60003302F4CF089590913302292F282329F0CF
:101A70008095892380933302E9CF089580913302C2
:101A8000811521F01092330280E0E0CF08950F938A
:101A90001F93CF93DF9380910401909105018C01F6
:101AA000C0913D0280913C02C82B80913302811588
:101AB00029F0C82B0E94981D8111E0DFF801C08336
:101AC000C0910401D091050148E050E069E272E064
:101AD000CE010E949E27892B59F088E0FE01A9E2E1
:101AE000B2E001900D928A95E1F7CE010E94FA1CB6
:101AF000DF91CF911F910F910895C9CF0895089557
:101B0000FECF08959091A80292FF0EC0982F990FD2
:101B1000990F990F962B90933102CADB8091310275
:101B2000869586958695ECCFC3CB1092310280E0E6
:101B3000E7CF909131028095892380933102282F3D
:101B4000277059F4891749F09091A80292FF05C0B7
:101B5000869586958695BADBE8CF0895CF93C82FF2
:101B60008091A80282FB992790F99C17C9F0C0FBCD
:101B700082F98093A80287EA92E055D082E0D9DF0B
:101B80008091480280FF0CC01F92CF9382EC90E0BE
:101B90009F938F930E94A9040F900F900F900F9026
:101BA000CF9108958091A802002482FF0394802D94
:101BB000D5CF81E0D3CF80E0D1CF80E090E0BC01F1
:101BC000F4C380E090E0BC01EAD3F7CFA3E0B0E03B
:101BD000ECEEFDE00C9417274ED359D31B82CE01B7
:101BE00003966CD381E090E08093E6011092E701C8
:101BF00071D3198284E18A83CE0101967CD306D603
:101C0000E0DF2396E2E00C943327E0CF089545C34C
:101C1000089532C3089547C3089556C308955AC31B
:101C200008955DC3089567C308956CC308959EC366
:101C30000895C1C30895A6E0B0E0E1E2FEE00C948F
:101C400015270E94011F8C0180913E0290913F0256
:101C50008017910779F019821A820E94011FBC0136
:101C600049815A8180E090E00E94040600933E0280
:101C700010933F022696E4E00C9431270E940D1F3A
:101C8000609344027093450280934602909347020A
:101C9000609340027093410280934202909343020A
:101CA000089508950895FDCF08950895FEDFFBCFB0
:101CB0000895FECF08950895FEDFFBCF85E091E201
:101CC0009BD4F0DFF3CF81E0089581E00895FBCF4E
:101CD0000895089508950895FCDFFCDFFCCF99DF97
:101CE000811101C092DF88E492E095DF87EA92E0FB
:101CF00098DF93DFADDA8091E4019091E501C1CAEC
:101D00000E94F81E03D4EBDF0E94E91C0E94D40558
:101D10000E949919D1CFA6E0B0E0E1E9FEE00C9471
:101D20001127D3DF81110BC086DF0E94EA1C0E94BD
:101D3000B61A0E94DC052696E8E00C942D27EDD318
:101D40001091A60280E042D3181771F380914802E7
:101D500081FD42D3BCDFC82E80E038D3082F8091AC
:101D6000A602081302C08ADFE0CF8027F82E10E019
:101D7000EE24E3948F2D8E2139F41F5FEE0C133087
:101D8000C9F70093A602EFCFDD24D394802F8E21D4
:101D900009F4D12CC11006C04D2D612F80E00E94A6
:101DA000821EEBCF612F80E00E946E1E8111F4CF66
:101DB00019831A820E94011FBC0149815A8181E066
:101DC0009D2D0E940406E8CF0F931F93CF93DF93BE
:101DD000FDD0EC01D23508F050C0D03508F0C8C0B5
:101DE000C03ED10530F5CD3CD10508F09DC0C83AC4
:101DF000D10578F4C53AD10508F093C0C130D105BA
:101E0000B1F1CE010497813A910588F1C0E0D0E0AC
:101E10002EC0CE01885A91094B97C0F7C85AD0E01E
:101E2000CC0FDD1FC35ADE4F0990D881C02DD4647A
:101E30001EC0D034A8F4D03208F0ADC0C83ED105E1
:101E4000B0F0CE0191509F3108F78D2F62D1082F4D
:101E50008C2F90E0BBD0D02FDF71C82FD92B07C0BB
:101E60008C2F90E0B3D0DF70C82FD92BD06ACE0171
:101E7000DF91CF911F910F910895C03882E5D80767
:101E8000B8F5C03682E5D80708F056C0C03482E500
:101E9000D807C8F4C03282E5D80708F047C08C2FB5
:101EA0008695869520E2829FC0011124C37021E0AF
:101EB00030E002C0220F331FCA95E2F7E901C82BB8
:101EC000D92BDD68D4CF8C2F86958695877020E23C
:101ED000829FC0011124C37021E030E002C0220FB4
:101EE000331FCA95E2F7E901C82BD92BDC68BFCFB5
:101EF000C03C82E5D80750F48C2F8F71C03AD24590
:101F000080F5982F84EF906AEC01B1CFCE01805C10
:101F10009245809708F07ACFDC2FDF71C0EFD06A4E
:101F2000A6CFA497D064A3CFD065A1CF8C2F8F71FB
:101F3000D82FC1EFD06A9BCF8C2F8695869587705E
:101F400020E2829FC0011124C37021E030E002C072
:101F5000220F331FCA95E2F7E901C82BD92BDA68A3
:101F600086CFD7D0982F80E09F71EC01D0627FCFD1
:101F70008C2F8F71CED053E0CC0FDD1F5A95E1F737
:101F8000DF70282F84FF04C090E1899F9001112405
:101F9000C22FD0696CCF8D2F8F71BBD0082F8C2FA3
:101FA00090E014D0302F3F71282F392B3062E90197
:101FB0005ECF462F711105C0633018F460E00C94B9
:101FC000C40480E090E00895F4DFFECE803E9105E9
:101FD000D1F1C8F48133910509F481C048F4893204
:101FE000910509F471C08A32910509F47FC0089502
:101FF00089339105E1F082389105C9F08533910567
:1020000009F45DC00895843E9105D1F148F4823E03
:10201000910531F1833E910541F181EE90E0089503
:10202000863E9105C1F1873E9105F1F10895209119
:10203000A702237009F064C02091A80223FF14C0F6
:1020400089E290E008952091A70220FD45C03091DB
:10205000A80230FF09C024FD24C083EE90E008955B
:102060002091A70222FDF7CF08952091A70222FD1B
:1020700044C03091A80230FD43C024FFF5CF11C009
:102080002091A80221FFF0CF8091A70284FD09C012
:1020900087EE90E008952091A70223FFE5CF24FF6B
:1020A000F7CF80E090E008952091A70223FD2BC098
:1020B0003091A80231FFE1CF84EE90E008952091A5
:1020C000A70225FFD1CFBCCF2091A70225FD1EC0BE
:1020D0002091A80223FFC8CF89E390E008952091C2
:1020E000A70226FFC1CF8AE290E008952091A702BF
:1020F00026FFBACF81E390E0089582EE90E0089544
:1021000080EE90E0089586EE90E0089585E390E0FB
:1021100008959091A70292FF10C041E0282F2471EA
:10212000243009F040E031E0282F2871283009F0F0
:1021300030E0431711F02CE0822793FF10C041E0FC
:10214000282F2471243109F040E031E0282F287134
:10215000283109F030E0431711F02CE0822730914C
:10216000A80230FF10C051E0282F2171213009F062
:1021700050E041E0282F2871283009F040E0541742
:1021800011F029E0822731FF10C041E0282F217192
:10219000213109F040E031E0282F2871283109F081
:1021A00030E0431711F029E0822794FF02C083FD3D
:1021B000877E0895CF939C01205E3245C1E0203296
:1021C000310538F4FB01C581C11103C08F710E9434
:1021D0007C058C2FCF9108959C01FB018581811591
:1021E00099F02B359CE7390769F02C359CE73907C6
:1021F00021F02A353C4721F00895D4DC80E0089591
:10220000D8DCFCCFD8DCFACF81E00895FB01258132
:10221000211579F182303CE79307A9F048F4811544
:102220003CE7930761F081309C4731F0822F08959D
:1022300083309C47D9F7EBDC0E94A80502C00E94BE
:10224000A40520E0F3CF90914802892F8E7F90FF64
:1022500081608093480280FF09C089EE90E09F93DF
:102260008F930E94A9040F900F90EBCF87ED90E021
:10227000F6CF21E0DBCF089580E090E00E94B82700
:102280009C0181E0233E3E4F09F080E0089563EE1B
:102290007EEF80E090E00C94D7276FEF7FEF80E037
:1022A00090E00C94D727CF93DF93EC0182E090E08D
:1022B0000E94AB278883DF91CF910895FC01608154
:1022C00082E090E00C94BD2783E090E00E94AB2771
:1022D00090E00895682F83E090E00C94BD27CF93A1
:1022E000DF93EC0184E090E00E94B8278883998313
:1022F000DF91CF910895FC016081718184E090E0CD
:102300000C94D7278F929F92AF92BF92CF92DF9279
:10231000EF92FF920F93CF93DF93EC0188E090E070
:102320000E94B3274B015C01688399828A83BB8238
:102330001C821D821E821F8283E290E00E94AB27D6
:102340009401A50188823983AA825B838C831D82D4
:102350001E821F82DF91CF910F91FF90EF90DF904F
:10236000CF90BF90AF909F908F9008950F93CF9391
:10237000DF93EC01488159816A817B8188E090E09C
:102380000E94CF276C81262F60E070E0CB01622F86
:1023900083E20E94BD27DF91CF910F910895AB0199
:1023A000BC018FE090E00C94CF27AB01BC0183E12E
:1023B00090E00C94CF27682F8EE090E00C94BD271E
:1023C0000895FECF08950895FECF0895E82FF0E018
:1023D000E655FD4F80810895A0E0B0E0E2EFF1E125
:1023E0000C94172789E091E09F938F930E94A90492
:1023F0001F921F9284E091E09F938F930E94A90403
:1024000081E091E09F938F930E94A9048091AA029A
:102410000E94B4051F928F938CEF90E09F938F934F
:102420000E94A9048AEF90E09F938F930E94A904D1
:102430008DB79EB70E960FB6F8949EBF0FBE8DBF98
:10244000E2E00C94332780EA8A95F1F7089500C002
:102450000895F9CF0895F894E82FE295EF70F0E031
:1024600041A18F7021E001C0220F8A95EAF7922FD7
:102470009095942391A392A1822F892B82A3789483
:10248000089584E3E8DF83E3E6DF85E3E4DF80E3C8
:10249000E2CFEF92FF920F931F93CF93DF937C01D4
:1024A000062F142FC62FD0E0CD56DE4F28812F3FA8
:1024B00029F1F894E22FE295EF70F0E031A12F704E
:1024C00081E001C0880F2A95EAF7932F982B91A3FA
:1024D00092A18095892382A37894B9DFF701408186
:1024E000189B11C01095412310E0F70140838881AB
:1024F0008F3F09F0B0DF612F802FABDFCDB7DEB7A4
:10250000E6E00C942F27412B11E0EFCFBADF1092B9
:10251000AA021092A90228D054CFA1E0B0E0E3E9CA
:10252000F2E10C94152719828D01402F612FCE0105
:102530000196AFDF1F5F000F1330B9F79091A9022A
:10254000898141E098130DC040E06AEA72E089EAAF
:1025500092E00BD0182F38DF812F2196E4E00C9405
:1025600031278093A902F1CF0895EF92FF920F9344
:102570001F93CF93DF937C018B01C42F411579F01A
:1025800081E080934B020E94011F80934902909347
:102590004A0280E0CDB7DEB7E6E00C942F27D09159
:1025A0004B02D115B1F38091490290914A020E94E9
:1025B000921EC29770F3F7018081F80190819817FD
:1025C00011F08083CD2F10924B028C2FE3CFA3CB41
:1025D00008950E949B1E0E94662170DB0E947E214E
:1025E0008FDB0E9487210E948A21F1DF0E94AC21AB
:1025F0000E94A91F71DBF7CF8093D8019093D90176
:102600000895CF93DF93EC01FB018581811104C014
:1026100081E0DF91CF910895E5D98272FE01E05209
:10262000F847EB30F105A0F7E15FF74D0C94F12688
:10263000DBD680E0EECF811521F05AD6FACF811596
:10264000E1F34AD6F6CF811521F008D3F2CF8115F8
:10265000E1F3FAD2EECF811521F01AD3EACF81153A
:10266000E1F309D3E6CF811521F02CD3E2CF811518
:10267000E1F31BD3DECF811521F084D1DACF8115B0
:10268000E1F371D1D6CFA0E0B0E0E9E4F3E10C943E
:102690001027062FB72EE82F71110EC0411521F01B
:1026A000F0E0EF50FB4FE4916E2F7E2F8E2FCDB7D1
:1026B000DEB7E9E00C942C27411521F0F0E0EF5053
:1026C000FB4FE49186E0089FE00111242FEF30E0FA
:1026D000CE01B9010E94A826AB01C801880F991F3D
:1026E000F5E5F49FB001F59F700D1124861B682F4E
:1026F000660F680FC9018B199109E89FD001E99F06
:10270000B00D11248B2FB69E60011124CD2CD12C3D
:1027100089010C191D096801E09F7001E19FF00C0F
:1027200011244330510551F18901061B1109B09E56
:102730006001B19ED00C1124CD2CD12C2C193D0957
:10274000E29F8001E39F100D1124712FCC3FD340F5
:1027500050F441305105B1F04230510561F47E2F03
:10276000EB2F812F08C04430510579F046305105D8
:1027700011F07B2F8F2D6E2FE82F98CF7F2D8E2F6E
:10278000EB2FF9CF7E2FEF2DF6CF8E2FE12F7B2F62
:10279000F2CF41E078CF0895FCCF089590910901E0
:1027A000291B922FE091C301F091C401242F462FE1
:1027B000682F892F90E009950895CF93DF93762FA6
:1027C000E901682F842FE8DF962F672F9E01482F9D
:1027D000892FE4DFDF91CF910895413808F040E878
:1027E000ECCF8091AB02843060F48370846080937E
:1027F000AB028091AE02813818F080E88093AE027F
:1028000008958C3AB0F38370886AF1CF85E08093A5
:10281000AB021092AC028FEF8093AD0280E8809300
:10282000AE021092AF028BEA92E001CA8091480298
:1028300080FF8BC08EEB93E09F938F930E94A9043F
:10284000809148020F900F9080FF7FC08091AB0273
:1028500081701F928F9381EA93E09F938F930E94E0
:10286000A904809148020F900F900F900F9080FF65
:102870006CC08091AB02869581701F928F9381E826
:1028800093E09F938F930E94A904809148020F9038
:102890000F900F900F9080FF58C08091AB028695EB
:1028A00086951F928F9386E693E09F938F930E9465
:1028B000A904809148020F900F900F900F9080FF15
:1028C00044C08091AC021F928F938CE493E09F935D
:1028D0008F930E94A904809148020F900F900F904F
:1028E0000F9080FF32C08091AD021F928F9382E3E0
:1028F00093E09F938F930E94A904809148020F90C8
:102900000F900F900F9080FF20C08091AE021F9219
:102910008F9388E193E09F938F930E94A904809105
:1029200048020F900F900F900F9080FF0EC0809183
:10293000AF021F928F938CEF92E09F938F930E9430
:10294000A9040F900F900F900F9008959091AF02EF
:10295000933018F49F5F9093AF02811519F08BEAC2
:1029600092E065C9089581E0F1CF9091AF02911591
:1029700019F091509093AF02811519F08BEA92E013
:1029800056C9089581E0F1CF0F931F93CF938091A3
:10299000AB0280FF09C0E091C701F091C801099521
:1029A000CF911F910F910895C0910B018091C301A8
:1029B0009091C4018C0180910C01C81760F780913F
:1029C00009019C2F981B20E040E060E0892F90E0F7
:1029D000F8010995CF5FEFCFEF92FF920F931F930E
:1029E000CF93DF93D82F162F042F8091AB0280FF57
:1029F0000CC0C0910B018091C3019091C4017C0176
:102A000080910C01C81730F0BFDFCDB7DEB7E6E02C
:102A10000C942F27809109019C2F981B202F412F68
:102A20006D2F892F90E0F7010995CF5FE9CF762FC1
:102A30009091AB0290FF0BC0413808F040E8682F3E
:102A4000842FAADE962F672F482F892FC5CF089590
:102A5000CF93DF93EC01EC81F0E0E451FC4F449123
:102A6000EBEAF2E062818181E2DF8C818F5F8C830F
:102A7000DF91CF910895CF93DF93EC01EBEAF2E081
:102A8000438162818C81D3DF8C818F5F8C83DF9166
:102A9000CF910895CF93DF93EC012091AE029C81FA
:102AA000892F817090FD822F692F627091FD622FB6
:102AB000492F447092FD422F8FDF8C8101968770E1
:102AC0008C83DF91CF910895A0E0B0E0EAE6F5E1D4
:102AD0000C940927682E062F142F422E9091AB02DA
:102AE00090FF42C0E92FE695E695AE2FAA56BE4F5D
:102AF0008C9180938C029C7F9430C9F5842F41384F
:102B000008F080E8662D702F47DE962F672F482F3C
:102B1000892F62DF6092AC020093AD021093AE0287
:102B2000411409F47BC08BEA92E081D8809148027D
:102B300080FF1AC08091AE021F928F938091AD02E8
:102B40001F928F938091AC021F928F9381E791E047
:102B50009F938F930E94A9048DB79EB708960FB6D6
:102B6000F8949EBF0FBE8DBFE0E10C942527823004
:102B700019F41091AE02CECF863019F46090AC02F9
:102B8000C9CF8930D9F3893129F6E951E0FB99247D
:102B900090F881E08925E695F0E0E451FB4F5490F0
:102BA000712CA52CB12CE82EF12C60910D0176161C
:102BB00010F0EADEAFCF759CC001112470E00E94D6
:102BC000A826862C861A911002C0660D862EC72C68
:102BD000D12C8091480280FF16C0BF92AF92FF9225
:102BE000EF921F928F921F927F9286E991E09F93BE
:102BF0008F930E94A9048DB79EB70A960FB6F894DA
:102C00009EBF0FBE8DBF80910B019601280F311D15
:102C1000412F602F882DE1DD7394C7CF809148024A
:102C200080FFA2CF1F921F9310E01F920F931F925D
:102C30006F928AE491E08CCFEBEAF2E0282F438197
:102C400062818181885F40CF81E0F6CFEBEAF2E0DC
:102C5000282F438162818181885036CF81E0F6CF71
:102C6000EBEAF2E0628121E1620F08F46FEF282FB6
:102C70004381818129CF81E0F3CFEBEAF2E06281E9
:102C800021E1621B08F460E0282F438181811CCF81
:102C900081E0F3CFEBEAF2E0438121E1420F08F457
:102CA0004FEF282F628181810FCF81E0F3CFEBEAD4
:102CB000F2E0438121E1421B08F440E0282F6281C9
:102CC000818102CF81E0F3CF20E0FECE0F931F93EE
:102CD000CF938C01C0E060910D01C61768F054DEFF
:102CE000F8018481928190FF1DC08F5FF801848379
:102CF000CF911F910F91089520910B012C0F332735
:102D0000331F70E08FEF90E00E94BC26F8018481B1
:102D10004091AE02C69F800D11246091AD025DDD31
:102D2000CF5FD9CF8150E2CFAF92BF92DF92EF92C7
:102D3000FF920F931F93CF93DF93FC018281D1E029
:102D400080FDDFEFC0E08091C3019091C4015C0180
:102D500080910D01C817B8F017DE80914D02D13077
:102D600009F050C0811102C080910D018150809303
:102D70004D02DF91CF911F910F91FF90EF90DF9067
:102D8000BF90AF90089580910B0190910901891B2C
:102D90008C0F20E040E060E090E0F501099504E050
:102DA00010E0D12CEC2EF12C80914D028D0D8C3049
:102DB0001CF16BE00E949B26892F082E001C000846
:102DC0008E150F0499F480910B019701280F311D86
:102DD0004091AE020403A0011124559547955595E5
:102DE00047956091AD028091AC02F7DCDD0E015099
:102DF0001040D1F6CF5FACCF87FFDFCF90910D01B0
:102E0000890FDBCF90E0019660910D0170E00E9488
:102E1000BC26ADCF0F931F93CF93C0910B01809130
:102E2000C3019091C4018C0180910C01C81750F12D
:102E3000C0E08091C3019091C4018C0160910D01AB
:102E4000C61768F1A1DD8091070190914C02980F9F
:102E500090934C0220910801280F2093080112162C
:102E600054F420910D012150330B092E001C000851
:102E7000921703061CF0819580930701CF911F9153
:102E80000F910895809109019C2F981B20E040E04C
:102E900060E0892F90E0F8010995CF5FC5CFEC2F56
:102EA000F0E070E0CF010E94BC2620910B01820F60
:102EB00090914C02092E001C0008E917F0059CF0C7
:102EC00090910801092E001C00089E170F065CF067
:102ED000282F30E04091AE026091AD028091AC02AB
:102EE0007CDCCF5FABCF90910901891B20E040E0F3
:102EF00060E090E0F8010995F4CFA0E0B0E0E3E8ED
:102F0000F7E10C940F27EC01FC812F2F30E0D90161
:102F10000E9480269B01AC010E94FD267B018C0152
:102F200080E290E08F1B9109FC01A5E59701A801C3
:102F30000E94FD265B016C019F01DF010E947A2641
:102F40009B010E94F7269B01AC012E0D3F1D401FE7
:102F5000511FB501C6010E94CF26022F30E00A3270
:102F600020F5A901440F551F420F531F5595479552
:102F7000142F1095F12C85E5801BE82E80910D0112
:102F8000F81600F101DD9C8181E0911519F0903275
:102F900019F48FEF8093060180910601890F8C83CD
:102FA000CDB7DEB7EAE00C942B2785E590E0821BD5
:102FB000930BAC01440F551F480F591FBAF64F5FD2
:102FC0005F4FD4CF8E2DF1FC802F20910B012F0D60
:102FD0003327331F412F6091AD02FFDBF394CECF37
:102FE0000F931F93CF93DF938C01C0E0D0E09091BB
:102FF0000D01C917D1055CF0C7DCF8018481019689
:1030000081708483DF91CF911F910F910895F80112
:10301000448180910B019E01280F311D6091AD020A
:103020008091AC029695C917D1053CF4411539F051
:103030004091AE02D2DB2196DACF4115C9F340E0D0
:10304000F9CFA0E0B0E0E7E2F8E10C940B27FC0137
:103050008281882E948081E08483ECEEF3E0A4905A
:10306000EBE6F4E0E491C091AE02C695C158D0E021
:10307000CC0FDD1FED2EF12CB12C05E01FEFEA196E
:103080008E2F90E03C0180910D01B81630F07CDC71
:10309000CDB7DEB7EEE00C942727CB2CD12C882DB2
:1030A000833058F40B9DF0011124E25BFD4F8091B9
:1030B000AC0280838091AD02818391101BC00C9D76
:1030C000F0010D9DF00D1124E25BFD4F1382128281
:1030D00080910B019601280F311D0C9DF0010D9D73
:1030E000F00D1124E25BFD4F42816181808175DB2F
:1030F000B394C9CF0C9DE0010D9DD00D1124C25B8E
:10310000DD4F8B818115E1F081508B83189FC001C9
:1031100011246C8170E00E94A82670E0FB01E4514C
:10312000FC4F84918A19189FC0011124B3010E9499
:10313000A8268091AE02689FB00111247A83C8CF7F
:103140000E9485276FEF70E00E94BC268E159F05B8
:103150000CF0BECF882D833090F00E9485276FEF52
:1031600070E00E94BC2688830E9485272091AD02D2
:103170002695622F70E00E94BC26280F29830C9DA3
:10318000F0010D9DF00D1124E25BFD4F1282809144
:10319000AE02893C58F088EC0C9DF0010D9DF00DBD
:1031A0001124E25BFD4F8483838392CF8431A0F7A7
:1031B00084E1F2CF6091AB026695669570E04BE0DA
:1031C00050E08EE091E00E949127892B19F481E074
:1031D00080938D0216D6809385029093860280910B
:1031E000480280FF08C081E391E09F938F930E9483
:1031F000A9040F900F90089510928D0280914802BB
:1032000080FF08C088E191E09F938F930E94A904FA
:103210000F900F9008959091AB0290FF42C08115DE
:1032200009F440C08B3208F03FC08F732091AB028D
:103230002370982F990F990F922B9093AB026115E1
:10324000A9F18BEA92E00E94170E8091480280FF5C
:1032500010C08091AB02869586951F928F9381E86E
:1032600092E09F938F930E94A9040F900F900F906C
:103270000F906091AB026695669570E04BE050E070
:103280008EE091E00E949127892BC9F0B5DF81E0A3
:10329000809388024091AE026091AD028091AC02B1
:1032A00013CD089581E0C2CF8AE2C0CF9091480249
:1032B00090FFDFCF1F928F9383E692E0D2CF7ADF29
:1032C000E6CF682F9091AB0296959695892F8F5FE8
:1032D0008B3208F081E09FCF81E0F3CF682F90918F
:1032E000AB0296959695892F815009F48AE293CF87
:1032F00081E0F4CF61E08FCF8091AB028160809359
:10330000AB028091480280FF0DC01F9281E08F9335
:1033100085EF91E09F938F930E94A9040F900F90E7
:103320000F900F908091AB0286958695E3CF60E079
:1033300072CF80918B02811138C08091480280FF4A
:1033400008C086EE92E09F938F930E94A9040F908D
:103350000F908BEA92E00E94150E8091AB028430B0
:1033600088F48091480280FF08C08DE992E09F9325
:103370008F930E94A9040F900F9048DA8BEA92E095
:103380000E94150E2EDA52DA10928D02E091C101E0
:10339000F091C20109958091AB0280FF03C0869530
:1033A0008695C5DF81E080938B0208958091AB0202
:1033B0008E7F8093AB028BEA92E00E94170E809181
:1033C000480280FF0FC08091AB0281701F928F93E3
:1033D0008DEB91E09F938F930E94A9040F900F9023
:1033E0000F900F9009DFD0CA8091480280FF10C073
:1033F0008091AB02839581701F928F938CE292E053
:103400009F938F930E94A9040F900F900F900F909D
:103410008091AB0280FF01C0C9CF6ECF0F931F9385
:10342000CF93DF9380918D02811509F43FC0809185
:103430008C02E091AB02E695E695E81BE0938702EB
:10344000853109F489C008F042C0893009F47AC096
:1034500090F5823009F464C0863009F46AC0C0ED8A
:10346000D7E00BEC13E180918802811559F010929E
:103470008802C7D4809385029093860210928902B5
:1034800010928A02BED42091850230918602821B5E
:10349000930B8F3F9F4750F42C0F3D1F20938502C5
:1034A0003093860285E892E0F8010995DF91CF918B
:1034B0001F910F9108958F3091F6E695F0E0E1525B
:1034C000FC4FE491CE2FD0E004E916E1CCCFC4EF5D
:1034D000D1E000EF17E1843231F288F4C8E2D0E0A5
:1034E0000DE717E1883109F4BECF833209F0B7CF79
:1034F000EAEDF3E0C591D5910AE415E1B4CF853248
:1035000009F0ADCF8E2F63E00E948F26E92FF0E007
:10351000E952FC4FE491CE2FD0E001E218E1A3CFB5
:10352000F0E0E851FC4FE491CE2FD0E008E215E145
:103530009ACFF0E0EB51FC4FE491CE2FD0E00BE3BB
:1035400015E191CFE695F0E0EE51FC4FE491CE2FDE
:10355000D0E006E616E187CFF0E0E452FC4FE491BC
:10356000CE2FD0E00AE017E17ECF089557CF08951F
:10357000539A0895FC01EE0FFF1FE80FF91FED5459
:10358000FD4F6183408322830895FF920F931F9321
:10359000CF93DF93182F062FF42EC0E0D0E02F2D0D
:1035A000402F612FCE01E6DF2196CB30D105B9F750
:1035B000CDB7DEB7E5E00C9430273BB1377F2BB1B8
:1035C00028604FB7F89483EB92E0FC01019650819C
:1035D00068E02BB9000000C057FF3BB9550F000051
:1035E00000C000C000C03BB900C06A9591F752E02E
:1035F000843D950751F74FBF8FE594E00197F1F7B0
:1036000000C00000089580E00895CF93C82F8091F6
:103610008E02813090F179F58C2FF5DF811521F044
:1036200081E08170CF910895C93209F168F4CB30FF
:1036300069F0C431E1F08CE096E09F938F930E9493
:10364000A9040F900F9015C0C833A9F781EF95E03A
:103650009F938F930E94A9048EE096E09F938F938F
:103660000E94A9040F900F900F900F90D9CF109245
:103670008E0280E0D6CF10928E0280E0D3CFCF931F
:10368000DF93EB0186319C4709F50E94F20C9D8186
:10369000911599F08A7A91E0811101C090E09093A0
:1036A0008F02811541F085E393D20E947D0D80E069
:1036B000DF91CF91089589E2F7CF80918F02811534
:1036C00019F085E38BD2F1CF89E2FCCF81E0F0CF16
:1036D000CF93DF93EC01FB018581811509F4CBC009
:1036E0009E0130572332310508F0ABC087EA92E0E3
:1036F0000E94110EFE01E150F047E232F10520F484
:10370000E65EF74D0C94F1268091A70281608093CC
:10371000A70290C08091A80288608093A8028AC006
:103720008091A7028260F3CF8091A7028460EFCFDF
:103730008091A7028860EBCF8091A8028160EDCFD5
:103740008091A8028260E9CF8091A7028061DFCFDB
:103750008091A7028062DBCF8091A7028064D7CFDF
:103760000E94D7088091A7028068D1CF8091A702DC
:103770008C60CDCF8091A8028360CFCF8091A702CB
:103780008E7FC5CF8091A802877FC7CF8091A70287
:103790008D7FBDCF8091A7028B7FB9CF8091A7028B
:1037A000877FB5CF8091A8028E7FB7CF8091A80286
:1037B0008D7FB3CF8091A7028F7EA9CF8091A70282
:1037C0008F7DA5CF8091A7028F7BA1CF0E94D708C4
:1037D0008091A7028F779BCF8091A702837F97CF9D
:1037E0008091A8028C7F99CF9091A702892F8B7F1F
:1037F00092FF8460877F92FF886089CF8091A802C2
:10380000982F909590FB80F990FB81F986CF90914D
:10381000A702892F8F7B96FF806479CF0E94D708FB
:103820009091A702892F97FB87F9805870CF81E08C
:103830000E94190E87EA92E00E94130E0E94D70898
:1038400080E0DF91CF91089580E0F2CF9091A702C0
:10385000892F8F7E94FF80615ACF9091A702892F84
:103860008E7F90FF816053CF9091A802892F877F30
:1038700093FF886052CF81E0E4CF0F931F93CF93E3
:10388000DF93C42FD22FFC0185818115C9F04093AD
:103890009202B7D280939002909391028C2F805E17
:1038A000883048F481E0C1FD84E0C0FD880FC2FD8E
:1038B00082950E94BF06DF91CF911F910F910895CD
:1038C00010919202141333C0809190029091910252
:1038D00029D2883C910558F5CD2FC05E1D17C1F047
:1038E000812F805E883048F481E011FD84E010FD76
:1038F000880F12FD82950E94C406C83048F481E00A
:10390000D1FD84E0D0FD880FD2FD82950E94BF06D4
:10391000802F0E94B80681E0D1FD84E0D0FD880FA1
:10392000D2FD8295C83038F60E94C406C4CF8C2FD1
:10393000805E883008F0BFCF81E0C1FD84E0C0FD2B
:10394000880FC2FD8295F0CF0F93FC01CB01E851A7
:10395000FC47E730F10588F5E45CF74D0C94F1265F
:1039600006E221EE41EE6AE17CE787DF80E00F911D
:10397000089507E225EE45EE6BE17CE7F6CF06E21F
:1039800021EE40EE68E17CE7F0CF07E225EE44EE61
:1039900069E17CE7EACF06E221EE42EE6CE17CE7EA
:1039A000E4CF07E225EE46EE6DE17CE7DECF08E2EC
:1039B00021E045EE6EE17CE7D8CFFB0185818111E6
:1039C0001092920281E0D3CF809397029093980255
:1039D000089508950895E0919702F0919802309724
:1039E00039F00190F081E02D309711F0099508959C
:1039F00080E00895EF92FF920F931F93CF93DF9390
:103A0000EC01E0919702F09198023097F1F1028079
:103A1000F381E02D3097C9F109958091480282FF2A
:103A200034C080FF0DC088811F928F938AE196E099
:103A30009F938F930E94A9040F900F900F900F9067
:103A40007E0186E0E80EF11C04E116E08091480258
:103A500080FF0BC08A811F928F931F930F930E9448
:103A6000A9040F900F900F900F902196CE15DF05AF
:103A700069F78091480280FF08C082E196E09F9339
:103A80008F930E94A9040F900F90CDB7DEB7E6E0A8
:103A90000C942F27A3E0B0E0E0E5FDE10C9417279C
:103AA000209195023091960228173907B1F0809342
:103AB000950290939602E0919702F09198023097C8
:103AC00061F00084F185E02D309739F023E02983FF
:103AD0008A839B83CE01019609952396E2E00C949C
:103AE0003327A3E0B0E0E7E7FDE10C94172720912E
:103AF00093023091940228173907B1F08093930212
:103B000090939402E0919702F0919802309761F0BF
:103B10000084F185E02D309739F024E029838A83F1
:103B20009B83CE01019609952396E2E00C943327FE
:103B300040910401509105019A012E5F3F4F485F6B
:103B40005F4F80E0F90190812F5F3F4F91118F5FB0
:103B500042175307B9F70895811591F02091040198
:103B600030910501F9013296285F3F4F90819817F7
:103B700031F03196E217F307C9F780E0089581E04C
:103B800008959C01FC01329680E09FEF408146172A
:103B900059F031969F3F19F4411101C0982F8F5F62
:103BA0008630A1F79F3F09F40895290F311D97FD35
:103BB0003A95F90162830895FC01329608962191A5
:103BC000261302C0DF011E92E817F907C1F7089516
:103BD000682F8091040190910501D3CF682F8091C7
:103BE000040190910501E8CFE0910401F0910501F5
:103BF000329686E011928A95E9F708950895FECFEE
:103C000008958F5F80931C016091190170911A01D2
:103C100080911B0190911C01F2CF83E080931C01E5
:103C20006091190170911A0180911B0190911C0102
:103C3000E6CFE7CF089581E080931C0160911901E0
:103C400070911A0180911B0190911C01D8CFF3CF84
:103C5000089591E0811101C090E090931B01609163
:103C6000190170911A0180911B0190911C01C7CF1D
:103C700080911B01089580931A0160911901709140
:103C80001A0180911B0190911C01B9CF80911A01FA
:103C90000895809319016091190170911A01809122
:103CA0001B0190911C01ABCF8091190108950895DB
:103CB0000895FECF089508950895F9CF0895FBDF84
:103CC0000E948D12F9DF80E00E94E611982F809308
:103CD000990281E0911101C080E00895E82FF0E0A1
:103CE000E756FD4F808190E021E030E002C0220FD6
:103CF000331F6A95E2F72823392381E0232B09F447
:103D000080E0089541110DC0E82FF0E0E756FD4F27
:103D100021E001C0220F6A95EAF7209580812823CF
:103D200020830895CF93DF93EC016BD08C1B9D0B08
:103D3000DF91CF91089585B7806885BF85B780688A
:103D400085BF08951F921FB61F9211248F939F93D2
:103D5000AF93BF9380919A02811113C08091D402D6
:103D60009091D502A091D602B091D7024196A11DA3
:103D7000B11D8093D4029093D502A093D602B09344
:103D8000D702BF91AF919F918F911F901FBE1F903F
:103D900018958091DC02843031F10E94AC051092BC
:103DA0009A0288E190E020E40FB6F894A8958093F9
:103DB00060000FBE2093600083B7817F846083BF63
:103DC00083B7816083BF7894889583B78E7F83BFE4
:103DD0000FB6F894A8958091600088618093600088
:103DE000109260000FBE08950E94D7080C94B00591
:103DF00082E084BD93E095BD9AEF97BD80936E00FD
:103E000008952FB7F8948091D4029091D502A09193
:103E1000D602B091D7022FBF08952FB7F8946091C2
:103E2000D4027091D5028091D6029091D7022FBF13
:103E3000089578941F921FB61F9211248F939F9319
:103E4000AF93BF938091D4029091D502A091D602F6
:103E5000B091D7020196A11DB11D8093D402909319
:103E6000D502A093D602B093D702BF91AF919F9194
:103E70008F911F901FBE1F90189581E08093E000E6
:103E800080E28093D8001092C9008FE19EE40197F0
:103E9000F1F700C00000A7E0B0EBCD018093E50290
:103EA0009093E602A093E702B093E80288E19CE0D9
:103EB0000FB6F894A895809360000FBE90936000B1
:103EC000FFCF88E19CE00FB6F894A895809360003E
:103ED0000FBE90936000FFCF089508959B01BA0133
:103EE0009091DC029430D9F48F708093E9009FEFB9
:103EF0008091E80085FD06C085ED8A95F1F7000008
:103F00009150B1F78091E80085FF09C040E050E092
:103F1000C90196D28091E8008E778093E8000895D9
:103F200043E050E0BC0182E0D9CFCF93DF93EC01B6
:103F30009FDE48E050E0BE0181E0D0DF88E0FE0176
:103F4000AEE9B2E001900D928A95E1F7DF91CF9151
:103F50000895089589E596E09F938F930E94A904A0
:103F60008091DB020F900F90811107C0F7D347D4E7
:103F70008091E20084608093E200089585E596E0F8
:103F80009F938F930E94A9041092DB020F900F90D1
:103F9000089581E596E09F938F930E94A9044BDEDC
:103FA00081E057DE0F900F900895A0E0B0E0EAEDB9
:103FB000FFE13DC78DE496E09F938F930E94A90493
:103FC0006091D80281E0611101C080E026DE0F908F
:103FD0000F90E2E048C7A0E0B0E0E0EFFFE127C7C4
:103FE00089E496E09F938F930E94A9049091DC024C
:103FF00081E0943009F080E06091D8021ADE0F90E1
:104000000F90E2E030C720919C022F5F822F62E385
:1040100086D6911519F020939C02089510929C0267
:1040200080919D028115E9F08091DC028430B9F421
:104030009091E9008091EC009F7080FB882787F9C0
:10404000892B93E09093E9009091EB0090FF04C0DE
:104050009091EE0097FD08C08F708093E900109258
:104060009D0208951092F1009091E80095FDFACF1D
:104070009091E80090FFF0CF9091E8009E779093A8
:10408000E800EACF42E061EC81E0E4D242E261EC98
:1040900082E0E0D242E261EC83E0DCD29091DC028B
:1040A00081E0943009F080E06091D802AACD80913F
:1040B000DE02893081F148F4823009F496C0833001
:1040C00009F457C0813041F008958A3009F480C066
:1040D0008B3009F468C008958091DD02813A09F0BF
:1040E00047C08091E800877F8093E8008091E102DB
:1040F0009091E202892B59F060E080E090E070E05E
:10410000ECD18091E8008B778093E800089568E017
:104110008EE992E0F4CF8091DD02813249F5809101
:10412000E1029091E202029718F58091E800877F02
:104130008093E8008091E80082FF16C02091F30090
:104140008091F200922F029731F48091F10081303A
:1041500011F0863019F48091F1008DDD8091E80036
:104160008B778093E800AAC28091DC028111E2CFB4
:1041700008958091DD02813AD9F78091E102909112
:10418000E202892BA9F78091E800877F8093E800FD
:104190008091E80080FFFCCF6BDD8093F10080917F
:1041A000E8008E77DECF8091DD02813209F78091C1
:1041B000E1029091E202892BD9F68091E800877F95
:1041C0008093E8007BD28091DF0243DD0C94D70816
:1041D0008091DD02813261F68091E800877F8093D3
:1041E000E8006CD28091E00254CD8091DD02813AEA
:1041F00009F0BECF8091E800877F8093E80080912E
:10420000E80080FFFCCF50DDC8CF9FB7F894109234
:104210009D029FBF9091DC02943009F047C020912D
:10422000E9009091EC002F7090FB992797F9922B61
:1042300023E02093E9002091EB0020FF34C020917F
:10424000EE0027FF30C020919B02211521F0209124
:10425000E80025FF28C010929B0226E03091E8007C
:1042600035FF14C08093F1008091E80085FD27C0E0
:104270008091E80080FFFCCF8091E8008E778093EA
:10428000E8009F709093E90080E008953091DC028F
:10429000343049F43091EB0035FD05C0215041F434
:1042A00081E080939B029F709093E9008FEF0895C7
:1042B000EFE9FFE03197F1F700C00000CFCF8FB7F3
:1042C000F89421E020939D028FBFDBCF84B7877FD6
:1042D00084BF0FB6F894A8958091600088618093A0
:1042E0006000109260000FBE80E890E00FB6F89476
:1042F00080936100909361000FBEA9CC2FD27FD232
:10430000E2EEF0E08081846080837894DAC48DE10D
:1043100091E05ACB8091DC02853089F4809148028B
:1043200080FF08C083E396E09F938F930E94A904C7
:104330000F900F908091DC02853011F055CD0895DB
:1043400028DDBDDC8115B1F38091DA02811591F38E
:1043500061D00E94D708EECF08959A014091E30200
:104360005091E40200C0492F50E043305105D1F094
:1043700078F44130510509F448C04230510571F4D8
:1043800084E590E043EA56E0F901408351830895C3
:1043900041325105E9F04232510539F180E090E0B7
:1043A00040E0F2CF482F50E0813061F042305105BB
:1043B00061F0EFE9F6E04115510581F7849190E055
:1043C000AF01E2CFEFE7F6E0F9CFEDE5F6E0F6CFAB
:1043D0006330710518F7660F771FFB01EE52FE4F31
:1043E0004081518189E090E0CFCF63307105B0F614
:1043F000FB01EE0FFF1FE453FE4F408151816753D5
:104400007E4FFB01808190E0BFCF82E190E047EFDB
:1044100056E0BACF80E189BD82E189BD09B400FED2
:10442000FDCF8091D8008F7D8093D8008091E000EF
:1044300082608093E0008091E00081FDFCCF0895D0
:10444000AF92BF92CF92DF92FF920F931F93CF93C1
:10445000DF936C01EB018A0150D1F82E811123C04A
:104460000115110539F0F80180819181C81BD90B24
:10447000C80ED91EA12CB12C2097A9F08091E8007C
:1044800085FD21C08091E8008E778093E8000115BA
:104490001105A1F0F801808191818A0D9B1D808317
:1044A000918385E0F82E8F2DDF91CF911F910F9191
:1044B000FF90DF90CF90BF90AF9008951ED18115EF
:1044C000E9F2F82EF0CFF60181916F018093F100AF
:1044D00021978FEFA81AB80ACFCFFC012091E302F1
:1044E0003091E4022617370720F06115710569F055
:1044F0009B0190E02115310571F491110CC0809160
:10450000E80082FF38C080E008959091E8009E772F
:104510009093E800EDCF8091DC028115C1F18530E8
:10452000C1F18091E80083FD30C08091E80082FDF8
:10453000E6CF8091E80080FFDDCF8091F3004091CD
:10454000F200582F2115310519F04830510558F067
:1045500091E04830510509F090E04091E8004E7735
:104560004093E800C7CF81918093F1002150310939
:104570004F5F5F4FE7CF8091DC02811541F08530BE
:1045800041F08091E80083FFBACF81E0089582E096
:10459000089583E00895FC012091E3023091E40244
:1045A0002617370720F06115710569F09B0190E02F
:1045B0002115310571F491110CC08091E80082FF42
:1045C00039C080E008958091E8008E778093E800FC
:1045D000EDCF8091DC028115C9F18530C9F1809160
:1045E000E80083FD31C08091E80082FDE6CF809134
:1045F000E80080FFDDCF8091F3004091F200582F5A
:104600002115310519F04830510558F091E0483036
:10461000510509F090E08091E8008E778093E800E2
:10462000C7CF84918093F1003196215031094F5FBB
:104630005F4FE6CF8091DC02811541F0853041F07B
:104640008091E80083FFB9CF81E0089582E008956A
:1046500083E00895982F973028F08F708093E900B9
:1046600081E008959093E900242F762F50E0981769
:1046700031F07091EC002091ED005091F00021FD9F
:1046800002C09F5FE8CF3091EB003E7F3093EB009C
:104690003091ED003D7F3093ED003091EB003160C3
:1046A0003093EB007093EC002093ED005093F000FA
:1046B0002091EE0027FDE5CF80E008958091DD0296
:1046C00087FF13C08091E80082FF06C08091E80058
:1046D0008B778093E80008958091DC028111F2CFFE
:1046E00008958091DC028115D9F38091E80080FF64
:1046F000F8CF8091E8008E77ECCF2091E4003091E4
:10470000E50095E6A9012091EC00822F817020FF41
:1047100006C08091E80080FF06C080E008952091E7
:10472000E80022FD1AC08091DC02811589F08530F5
:1047300089F08091EB0085FD0FC02091E40030915D
:10474000E50042175307F9F29150E1F684E008952D
:1047500082E0089583E0089581E008955FD066D0F7
:10476000E0EEF0E0808181608083E8ED80818F77EA
:10477000808319BCA7EDB0E08C918E7F8C938081F3
:104780008F7E80831092DB020895CF93DF9346D013
:104790004DD0C8EDD0E088818F778883888180688C
:1047A000888388818F7D888319BC1092DC021092E7
:1047B000D8021092DA021092D902E0EEF0E0808185
:1047C0008B7F808388818160888342E060E080E025
:1047D00041DFE1EEF0E080818E7F8083E2EE808138
:1047E00081608083808188608083E0EE80818E7F1D
:1047F0008083888180618883DF91CF910895E8ED7F
:10480000F0E080818F7E8083E7ED8081816080830E
:1048100084E082BF81E08093DB02B7CFE8EDF0E077
:1048200080818E7F80831092E20008951092DA00DA
:104830001092E10008951F920F920FB60F9211246B
:104840002F933F934F935F936F937F938F939F9398
:10485000AF93BF93EF93FF938091E10082FF0AC073
:104860008091E20082FF06C08091E1008B7F8093FF
:10487000E100C9DB8091DA0080FF18C08091D80088
:1048800080FF14C08091DA008E7F8093DA008091DF
:10489000D90080FF8FC080E189BD82E189BD09B464
:1048A00000FEFDCF81E08093DC0254DB8091E100CB
:1048B00080FF18C08091E20080FF14C08091E20068
:1048C0008E7F8093E2008091E20080618093E2001D
:1048D0008091D80080628093D80019BC85E08093D5
:1048E000DC0263DB8091E10084FF28C08091E2005C
:1048F00084FF24C080E189BD82E189BD09B400FE46
:10490000FDCF8091D8008F7D8093D8008091E10009
:104910008F7E8093E1008091E2008F7E8093E200A1
:104920008091E20081608093E2008091D80281153D
:1049300009F445C084E08093DC024DDB8091E10006
:1049400083FF27C08091E20083FF23C08091E100B4
:10495000877F8093E10082E08093DC021092D8028E
:104960008091E1008E7F8093E1008091E2008E7F54
:104970008093E2008091E20080618093E20042E057
:1049800060E080E067DE8091F00088608093F00056
:1049900000DBFF91EF91BF91AF919F918F917F913C
:1049A0006F915F914F913F912F910F900FBE0F909C
:1049B0001F90189519BC1092DC02E0DA77CF809135
:1049C000E30087FF02C083E0B6CF81E0B4CF1F923F
:1049D0000F920FB60F9211241F932F933F934F9373
:1049E0005F936F937F938F939F93AF93BF93CF9377
:1049F000DF93EF93FF93E9EEF0E080811091EC00FC
:104A00008F7010FB112717F9182B1082C0EFD0E020
:104A10008881877F888378941CD0E9EEF0E010824B
:104A20008881886088831F701083FF91EF91DF91E8
:104A3000CF91BF91AF919F918F917F916F915F9136
:104A40004F913F912F911F910F900FBE0F901F908C
:104A50001895AAE2B0E0EEE2F5E2E8C18DED92E051
:104A6000FC0101962091F100208322E0853E92070F
:104A7000B9F71DDB8091E80083FF37C08091DD022C
:104A80009091DE029A3088F5E92FF0E0ED5BF74D6A
:104A9000A8C1803889F0823841F58091E1028F7099
:104AA000873018F58093E9008091EB0085FB88271B
:104AB00080F91092E90006C08091DA02880F909187
:104AC000D902892B9091E800977F9093E80080931A
:104AD000F1001092F1008091E8008E7722C08111E0
:104AE00015C08091DF02813001F18091E80083FFE1
:104AF0000AC08091E800877F8093E8008091EB00F6
:104B000080628093EB00AA96E3E0ACC1823069F743
:104B10008091DF02811579F01092E9008091E80020
:104B2000877F8093E800CADDE0CF933009F080E012
:104B30008093DA02F1CF8091E1028F70282F21500B
:104B4000263098F68093E9002091EB0020FFE4CF17
:104B5000933031F48091EB0080628093EB00DCCFE6
:104B60009091EB0090619093EB0021E001C0220F47
:104B70008A95EAF72093EA001092EA008091EB0010
:104B80008860EBCF8111B1CF8091DF028F77182F32
:104B90008091E3008078812B8093E3008091E8008E
:104BA000877F8093E8008ADD8091E80080FFFCCF5A
:104BB0008091E30080688093E30083E0111101C0DD
:104BC00082E08093DC0291CF8058823008F08DCF54
:104BD0008091DF029091E0028C3D23E0920789F5FD
:104BE00083E08A838AE289834FB7F894DE011396C3
:104BF00020E03EE051E2E32FF0E050935700849133
:104C000020FF03C082958F703F5F8F708A30B8F0AD
:104C1000895C8D931D922F5F243169F74FBF80917E
:104C2000E800877F8093E8006AE270E0CE01019699
:104C300054DC8091E8008B778093E80056CF805D4C
:104C4000E8CF6091E1027091E202AE014F5F5F4FE9
:104C500084DBBC01892B09F448CF9091E800977F51
:104C60009093E80089819A8196DCE3CF803809F03F
:104C70003CCF8091E800877F8093E8008091D80244
:104C80008093F10028CF811130CF9091DF029230D4
:104C900008F02BCF8091E800877F8093E800909305
:104CA000D8020CDD8091D802811529F084E0809330
:104CB000DC02E8D91ACF8091E30087FDF7CF81E0CD
:104CC000F6CFCF938091DC02811591F08091E900BD
:104CD000C091EC008F70C0FBCC27C7F9C82B109295
:104CE000E9008091E80083FDB4DECF70C093E90055
:104CF000CF91089505D0332312F48A1B9B0B78C003
:104D0000A29FB001B39FC001A39F700D811D11240C
:104D1000911DB29F700D811D1124911D0895992739
:104D200078E0880F991F961708F0961B881F7A95D0
:104D3000C9F78095089587FB082E062687FD819583
:104D400067FD6195ECDF0EF4919507FC8195089560
:104D5000AA1BBB1B51E107C0AA1FBB1FA617B707A1
:104D600010F0A61BB70B881F991F5A95A9F78095BD
:104D70009095BC01CD01089597FB072E16F4009481
:104D800006D077FD08D0E4DF07FC05D03EF490950F
:104D900081959F4F0895709561957F4F0895A1E289
:104DA0001A2EAA1BBB1BFD010DC0AA1FBB1FEE1FA5
:104DB000FF1FA217B307E407F50720F0A21BB30BF0
:104DC000E40BF50B661F771F881F991F1A9469F76C
:104DD00060957095809590959B01AC01BD01CF01C8
:104DE0000895EE0FFF1F0590F491E02D099488DFE0
:104DF000B7FF0895821B930B089582DFA59F900D46
:104E0000B49F900DA49F800D911D112408952F92A1
:104E10003F924F925F926F927F928F929F92AF924A
:104E2000BF92CF92DF92EF92FF920F931F93CF9397
:104E3000DF93CDB7DEB7CA1BDB0B0FB6F894DEBF2E
:104E40000FBECDBF09942A88398848885F846E8454
:104E50007D848C849B84AA84B984C884DF80EE809E
:104E6000FD800C811B81AA81B981CE0FD11D0FB6A7
:104E7000F894DEBF0FBECDBFED010895AAE0B0E00B
:104E8000E3E4F7E2D4CF89879A87FC0160817181DE
:104E90008281938100977040604021F464E279ED53
:104EA0008BE597E02DE133EF41E050E094D029838A
:104EB0003A834B835C839B01AC01A7EAB1E49DDF9D
:104EC0006D837E838F839887ACEEB4EF29813A811E
:104ED0004B815C819ED02D813E814F815885260F6C
:104EE000371F481F591FC901DA01B7FF03C00197D7
:104EF000A109B048E985FA8580839183A283B383B1
:104F00009F772A96E2E0AFCFB9CF80E091E0B6CFAD
:104F1000809300019093010110920201109203010D
:104F20000895FC014150504030F001900616D1F731
:104F30003197CF010895882799270895FB01DC0157
:104F400004C08D910190801921F441505040C8F760
:104F5000881B990B0895F999FECF92BD81BDF89AEF
:104F6000992780B50895A6E1B0E044E050E025C05F
:104F7000A8E1B0E042E050E020C0262FF999FECF32
:104F800092BD81BDF89A019700B4021639F01FBA9C
:104F900020BD0FB6F894FA9AF99A0FBE08950396B9
:104FA000272FECDFEADF252FE9DF242FE7CF01965B
:104FB000272FE4DFE2CFDC01CB01FC01F999FECF22
:104FC00006C0F2BDE1BDF89A319600B40D92415091
:104FD0005040B8F70895052E97FB16F400940FD0B3
:104FE00057FD05D0DCDE07FC02D046F408C0509522
:104FF0004095309521953F4F4F4F5F4F08959095C5
:105000008095709561957F4F8F4F9F4F0895B7FFA3
:10501000F4CEF3DE821B930B0895F894FFCF1813A0
:105020001B131F13231327132B132F1333133713A0
:105030003B133F13BE1B2D1CC61B901B941BCA1B8E
:10504000981BCE1BDA1BA41B261CA81BDE1BAC1B4B
:10505000E21B071CB01BE61B0E1CB61BEC1BF41B53
:105060009C1BD21BA01BD61BBA1BF01BFE1B171CC4
:10507000241C8A1BC21B341CBF1CC51CB01CB91CC1
:10508000CB1CD11CD71C49256F2575256F2575258F
:0A509000C225E425752536264326C7
:10509A00010000003402010102000B000B0B011990
:1050AA001A1B1C1D1E1F20212200000100461E95EE
:1050BA001F6D1F6C1F901FE200E900EA00B500B6E1
:1050CA0000B700CD008301CC008A0192019401212E
:1050DA0002230224022502260227022A02B300B46E
:1050EA00006F0070009F01CB019F02A002E200E95D
:1050FA0000EA00B500B600B700CD008301CC008AF3
:10510A000192019401210223022402250226022788
:10511A00022A02B300B4006F0070009F01CB019F06
:10512A0002A0023433350001020202020606060911
:10513A0009090909090F0F0F0F0F0F15151518196E
:10514A001919191919191919192324252525252574
:10515A0025B81ABA1AC51ADD1A44321550071E079D
:08516A000907B506CE06E706B1
:00000001FF
